:020000040800F2
:1000000000300020F1200008492000084B200008A3
:100010004D2000084F20000851200008000000007B
:100020000000000000000000000000005320000855
:100030005520000800000000572000085920000843
:100040004121000841210008412100084121000808
:1000500041210008412100084121000841210008F8
:1000600041210008412100084121000841210008E8
:1000700041210008412100084121000841210008D8
:1000800041210008412100084121000841210008C8
:100090004121000841210008412100085D2000089D
:1000A00041210008412100084121000841210008A8
:1000B0004121000841210008000000004121000802
:1000C000412100080000000000000000412100085C
:1000D00000000000412100084121000841210008E2
:1000E000412100084121000800000000000000003C
:1000F0000000000000000000000000000000000000
:1001000000000000000000000000000000000000EF
:1001100000000000000000007520000841210008D8
:1001200000000000000000000000000000000000CF
:1001300000000000000000000000000000000000BF
:1001400041210008412100080000000000000000DB
:10015000000000000000000000000000000000009F
:10016000000000000000000000000000000000008F
:10017000000000000000000000000000000000007F
:0801800000000000412100080D
:1001900010B5054C237833B9044B13B10448AFF3C1
:1001A00000800123237010BD7000002000000000BB
:1001B000F429000808B5034B1BB103490348AFF30A
:1001C000008008BD0000000074000020F429000831
:1001D00001F0FF01102A2BDB10F0070F08D010F8F8
:1001E000013B013A8B422DD010F0070F42B3F6D1FC
:1001F000F0B441EA012141EA014122F007047FF015
:1002000000070023F0E80256083C85EA010586EA6B
:10021000010685FA47F5A3FA87F586FA47F6A5FAA7
:1002200087F68EB9EED1F0BC01F0FF0102F00702B3
:1002300032B110F8013B013A83EA010313B1F8D15E
:100240000020704701387047002D06BF354603383F
:10025000073815F0010F07D1013015F4807F02BF78
:10026000013015F4C03F0130F0BC0138704700BFC9
:1002700038B50E4A0E4B054618784FF47A73B3FB27
:10028000F0F31068B0FBF3F000F0A0F8044658B9A2
:100290000F2D09D8024629464FF0FF3000F056F8DE
:1002A000044B20461D6038BD012038BD08000020E9
:1002B0000000002004000020074A08B5136843F03E
:1002C00010031360032000F02FF80020FFF7D0FF89
:1002D00001F0F8FD002008BD00200240034A044B55
:1002E00011681B780B441360704700BF2026002064
:1002F00000000020014B1868704700BF2026002036
:1003000038B50446FFF7F6FF631C1CBF054B1B788E
:10031000054618BFE418FFF7EDFF401B8442FAD8EA
:1003200038BD00BF00000020074AD36823F4E06313
:100330001B041B0C43F0BF63000243F4003300F4C2
:10034000E0600343D360704700ED00E0174B30B529
:10035000DC68C4F30224C4F10703251D042B28BF65
:100360000423062D4FF0010505FA03F303F1FF33D3
:100370008CBF033C00241940A14005FA04F4013C61
:100380002240002842EA01024FEA0212AFBF00F108
:10039000604000F00F00064BD2B2A5BF00F56140EF
:1003A000D2B21A5480F8002330BD00BF00ED00E047
:1003B00014ED00E04209012300F01F0003FA00F0F1
:1003C000014B43F82200704700E100E00138B0F132
:1003D000807F0AD2064B074A5860F02182F823102A
:1003E0000020072298601A6070470120704700BF04
:1003F00010E000E000ED00E02DE9F04F85B00B6863
:10040000DFF86481564A01934FF00F090023019CE5
:10041000DC4002D105B0BDE8F08F012404FA03FAF4
:10042000019C14EA0A0500F093804C6824F0100B3C
:10043000BBF1020F11D1DF0800EB870703F0070EB5
:100440003E6A4FEA8E0E09FA0EFC26EA0C0C0E6983
:1004500006FA0EF646EA0C063E624FEA430C032704
:10046000066807FA0CF7FF4304F0030E3E400EFA4D
:100470000CFE0BF1FF3B4EEA0606BBF1010F0660D6
:1004800011D8866806EA070BCE6806FA0CFE4EEA1B
:100490000B068660466826EA0A0AC4F300169E40E8
:1004A00046EA0A064660C66837408E6806FA0CF6C9
:1004B0003743E600C7604BD5D8F8186046F0010610
:1004C000C8F81860D8F8186023F0030707F18047D0
:1004D00006F0010607F58037039603F0030E039E2E
:1004E000BE684FEA8E0E09FA0EFCB0F1904F26EA74
:1004F0000C0C2FD01B4EB0422ED006F58066B042B9
:100500002CD006F58066B04214BF0526032606FAF5
:100510000EF646EA0C06BE601668EF4314F4803F00
:100520000CBF3E402E431660566814F4003F0CBFCB
:100530003E402E435660966814F4801F0CBF3E4028
:100540002E439660D668A40254BF3E402E43D66028
:1005500001335CE70026DAE70126D8E70226D6E772
:1005600000040140000400480010024003691942E1
:1005700014BF0120002070477047000008B5044BED
:100580005969014202D05861FFF7F6FF08BD00BF6C
:10059000000401402DE9F347054618B9012002B0D7
:1005A000BDE8F0870368DA0711D42B689B0700F1D8
:1005B00085802B681C0700F1F6802B68580700F136
:1005C0003F81EA69002A40F0D6810020E7E7BA4C73
:1005D000636803F00C03042B07D0636803F00C037B
:1005E000082B16D16368DF0313D54FF4003393FA59
:1005F000A3F2216893FAA3F3B3FA83F303F01F0382
:10060000012202FA03F30B42CFD06B68002BCCD14E
:10061000C4E76A68B2F5803F25D1236843F480338C
:100620002360E36AA96823F00F030B43E36252B32C
:10063000FFF760FE4FF400368046012796FAA6F3D6
:10064000226896FAA6F3B3FA83F303F01F0307FABE
:1006500003F31342A9D1FFF74DFEA0EB0800642875
:10066000ECD903209BE7236832B923F4803323605D
:10067000236823F48023D3E7B2F5A02FF5D143F408
:1006800080232360C9E7FFF735FE4FF4003680462C
:10069000012796FAA6F3226896FAA6F3B3FA83F333
:1006A00003F01F0307FA03F313423FF47EAFFFF793
:1006B00021FEA0EB08006428EBD9D2E77E4C6368EA
:1006C00013F00C0F07D0636803F00C03082B22D142
:1006D0006368DE031FD4022393FAA3F2216893FA1E
:1006E000A3F3B3FA83F303F01F03012202FA03F327
:1006F0000B4203D02B6993427FF450AF2168F8235B
:1007000093FAA3F3B3FA83F26B69934021F0F802F2
:10071000134323604DE72A6901260AB396FAA6F32C
:10072000B3FA83F303F1845303F584139B00022788
:100730001E60FFF7DFFD804697FAA7F3226897FA5D
:10074000A7F3B3FA83F303F01F0306FA03F313428C
:10075000D4D1FFF7CFFDA0EB08000228ECD980E749
:1007600096FAA6F3B3FA83F303F1845303F58413E3
:100770009B0002271A60FFF7BDFD804697FAA7F39A
:10078000226897FAA7F3B3FA83F303F01F0306FA7C
:1007900003F313423FF40DAFFFF7ACFDA0EB0800ED
:1007A0000228EBD95DE7AA69434E444901241AB3F4
:1007B00094FAA4F3B3FA83F30B449B0002271C6062
:1007C000FFF798FD804697FAA7F397FAA7F397FAF1
:1007D000A7F3726A97FAA7F3B3FA83F303F01F0340
:1007E00004FA03F313427FF4E8AEFFF783FDA0EBB6
:1007F00008000228E7D934E794FAA4F3B3FA83F3A4
:100800000B449B0002271A60FFF774FD804697FA9D
:10081000A7F397FAA7F397FAA7F3726A97FAA7F3E1
:10082000B3FA83F303F01F0304FA03F313423FF414
:10083000C4AEFFF75FFDA0EB08000228E7D910E780
:100840001D4CE369D90034D4E36943F08053E3617C
:10085000E36903F080530193019B0126184F3B6825
:10086000DA052FD5EB68012B3DD1236A43F0010354
:100870002362FFF73FFD02278246B9464FF0010889
:1008800097FAA7F397FAA7F3002B6CD0226A99FA8C
:10089000A9F3B3FA83F303F01F0308FA03F3134237
:1008A00058D0002E3FF48DAEE36923F08053E3610E
:1008B00087E60026D2E700BF00100240208190109A
:1008C000007000403B6843F480733B60FFF712FD0B
:1008D00080463B68DB05C5D4FFF70CFDA0EB0800A4
:1008E0006428F6D9BDE63BBB236A23F001032362EB
:1008F000236A23F004032362FFF7FCFC02278246ED
:10090000B9464FF0010897FAA7F397FAA7F373B324
:10091000226A99FAA9F3B3FA83F303F01F0308FAE2
:1009200003F31342BDD0FFF7E5FC41F28833A0EB9F
:100930000A009842E7D994E6052B236A03D143F0D5
:100940000403236291E723F001032362236A23F067
:1009500004038DE7FFF7CEFC41F28833A0EB0A00D9
:1009600098428DD97DE697FAA7F3626A8FE797FAE6
:10097000A7F3626ACDE7414C636803F00C03082BD0
:100980003FF40CAE022A4FF0807352D193FAA3F3D6
:10099000B3FA83F303F1845303F584139B0000221D
:1009A0001A60FFF7A7FC4FF000778046012697FA00
:1009B000A7F3226897FAA7F3B3FA83F303F01F03B0
:1009C00006FA03F313422DD162686B6A296A22F496
:1009D00074120B43134363604FF0807393FAA3F3D5
:1009E000B3FA83F303F1845303F584139B004FF0B0
:1009F00000751E60FFF77EFC0126074695FAA5F3F9
:100A0000226895FAA5F3B3FA83F303F01F0306FAFD
:100A100003F313427FF4D9ADFFF76CFCC01B02282F
:100A2000ECD91EE6FFF766FCA0EB08000228BED951
:100A300017E693FAA3F3B3FA83F303F1845303F5B0
:100A400084139B0000221A60FFF754FC4FF00075DE
:100A50000746012695FAA5F3226895FAA5F3B3FA9D
:100A600083F303F01F0306FA03F313423FF4ADAD23
:100A7000FFF740FCC01B0228ECD9F2E50010024051
:100A800010B5134C616801F00C03082B1ED14FF414
:100A9000701393FAA3F301F47012B3FA83F322FAFA
:100AA00003F30C4AD05CE36A0F2292FAA2F2B2FA84
:100AB00082F203F00F03D340074AD25CCB034ABF54
:100AC000064B074BB3FBF2F3584310BD034810BD70
:100AD000001002400C2A00081C2A000800127A00AC
:100AE00000093D002DE9F0410D46044610B90120F2
:100AF000BDE8F0814C4A136803F007038B422ED304
:100B00002268910736D4D2073CD4474A136803F0D1
:100B100007039D4275D32268444D12F0040F7CD127
:100B2000130706D56B68226923F4605343EAC203B6
:100B30006B60FFF7A5FF6B68F02292FAA2F2B2FA9F
:100B400082F203F0F003D340394AD35CD840394BEA
:100B500018600020FFF78CFB0020BDE8F0811368CF
:100B600023F007030B431360136803F00703994254
:100B7000BDD1C5E72D49A0684B6823F0F0030343BE
:100B80004B60C0E76268294E012A27D14FF4003339
:100B900093FAA3F1316893FAA3F3B3FA83F303F062
:100BA0001F0302FA03F30B42A1D0736823F003037F
:100BB0001A437260FFF79EFB41F28838074673685C
:100BC000626803F00C03B3EB820F9ED0FFF792FB39
:100BD000C01B4045F3D90320BDE8F081022A0CBFB9
:100BE0004FF00073022393FAA3F1306893FAA3F352
:100BF000B3FA83F303F01F03012101FA03F3034265
:100C0000D2E7136823F007032B431360136803F044
:100C100007039D427FF46BAF7DE76B68E16823F4C7
:100C2000E0630B436B607BE7002002400010024052
:100C30003B2A000808000020084B4FF4E0625B6884
:100C400092FAA2F2B2FA82F203F4E063D340044AC9
:100C5000D35C044A1068D840704700BF00100240BF
:100C60004B2A000808000020084B4FF460525B68D4
:100C700092FAA2F2B2FA82F203F46053D340044A29
:100C8000D35C044A1068D840704700BF001002408F
:100C90004B2A0008080000200368DA6842F00102CD
:100CA000DA601A6842F001021A6000207047036897
:100CB000DA6822F00102DA60196A41F21112114277
:100CC00008D1196A40F24442114202BF1A6822F068
:100CD00001021A60002070477047704770477047E4
:100CE0007047704703681A69910710B504460FD51D
:100CF000DA6892070CD56FF002021A619B69012233
:100D00009907027700F08580FFF7E9FF002323773A
:100D100023681A69520710D5DA6850070DD56FF0AD
:100D200004021A619B69022213F4407F2277204655
:100D300075D0FFF7D4FF0023237723681A691107C2
:100D40000FD5DA6812070CD56FF008021A61DB695B
:100D500004229B072277204667D0FFF7C0FF0023BD
:100D6000237723681A69D00610D5DA68D1060DD525
:100D70006FF010021A61DB69082213F4407F2277BA
:100D8000204658D0FFF7ABFF0023237723681A696A
:100D9000D20708D5DA68D00705D56FF001021A61CD
:100DA0002046FFF79AFF23681A69110608D5DA680A
:100DB000120605D56FF080021A61204600F0DFFBB5
:100DC00023681A69D00508D5DA68110605D56FF4CD
:100DD00080721A61204600F0D3FB23681A6952061C
:100DE00008D5DA68500605D56FF040021A61204632
:100DF000FFF777FF23681A69910622D5DA68920611
:100E00001FD56FF0200220461A61BDE8104000F0A7
:100E1000B5BBFFF763FF2046FFF762FF76E7FFF7FA
:100E20005DFF2046FFF75CFF85E7FFF757FF204691
:100E3000FFF756FF93E7FFF751FF2046FFF750FFFC
:100E4000A2E710BD214A0368904210B505D0B0F169
:100E5000804F02D01E4CA0420CD14C6823F070038E
:100E6000904243EA040310D0B0F1804F0DD0184AED
:100E700090420AD0174A904207D002F58062904211
:100E800003D002F58062904203D1CA6823F4407314
:100E900013434A6923F08003134303608B68C362E2
:100EA0000B688362094B98420BD003F5A05398421C
:100EB00007D003F58063984203D003F5806398421E
:100EC00001D10B6903630123436110BD002C014074
:100ED000000400400040014010B50446A0B190F865
:100EE0003D3003F0FF021BB980F83C2001F002F80E
:100EF000022384F83D302068211DFFF7A3FF012362
:100F000084F83D30002010BD012010BD10B504460E
:100F1000A0B190F83D3003F0FF021BB980F83C20EF
:100F2000FFF7DAFE022384F83D302068211DFFF729
:100F300089FF012384F83D30002010BD012010BD41
:100F4000036A23F001030362036A70B5446882698F
:100F50000D6822F4803222F073022A438D6823F058
:100F600002032B43174DA8420BD005F5A055A8420C
:100F700007D005F58065A84203D005F58065A84235
:100F80001AD1CD6823F008032B430E4DA84223F05D
:100F900004030BD005F5A055A84207D005F58065E0
:100FA000A84203D005F58065A84205D124F4407518
:100FB0008E694C6934432C43446082614A684263C1
:100FC000036270BD002C0140036A23F0100303622A
:100FD000036A426870B584690D6824F0807424F453
:100FE000E64444EA05248D6823F0200343EA051310
:100FF000104DA8420ED1CD6823F0800343EA0513BB
:1010000023F040034D698E6922F44062354342EA81
:10101000850209E0084DA842F4D0084DA842F1D05D
:1010200005F58065A842EDD042604A68846182631C
:10103000036270BD002C01400040014000440140AB
:10104000036A23F480730362036A426870B5C4695B
:101050000D6824F4803424F073042C438D6823F449
:10106000007343EA0523114DA8420ED1CD6823F445
:10107000006343EA052323F480634D698E6922F4FB
:101080004052354342EA051209E0094DA842F4D026
:10109000084DA842F1D005F58065A842EDD0426028
:1010A0004A68C461C263036270BD00BF002C014086
:1010B0000040014000440140036A23F4805303626E
:1010C000026A30B54468C3690D6823F0807323F465
:1010D000E64343EA05238D6822F4005242EA0532D2
:1010E0000C4DA8420BD005F5A055A84207D005F538
:1010F0008065A84203D005F58065A84204D14D69FA
:1011000024F4804444EA85144460C3614B6803645A
:10111000026230BD002C014010B584680A4324F4FB
:101120007F4442EA03232343836010BD90F83C30A0
:10113000012B70B504464FF002001AD084F83D0030
:101140002068012384F83C308268524B134083604E
:101150000B68402B75D018D8102B00F08F8009D861
:10116000002B00F085800123002084F83D3084F8B6
:101170003C0070BD202B00F08780302BF3D18368BA
:1011800023F0700343F0370333E0702B33D01BD8C8
:10119000502B3FD0602BE6D14D68CE68016A21F01C
:1011A000100101628269036A22F4704223F0A003F5
:1011B00043EA051342EA063282610362836823F040
:1011C000700343F0670314E0B3F5805F0CD0B3F510
:1011D000005FC8D1CB684A688968FFF79DFF226825
:1011E000936843F4804313E0836823F4803323F04F
:1011F00007038360B7E7CB684A688968FFF78CFF0D
:101200002268936823F4803323F0770343F0770355
:101210009360A8E74A68CE68016A056A25F001056F
:101220000562836921F00A0123F0F00343EA061303
:101230000A4383610262836823F0700343F057031B
:10124000D7E74A68CE68016A056A25F0010505629C
:10125000836921F00A0123F0F00343EA06130A43ED
:1012600083610262836823F0700343F04703C0E7A1
:10127000836823F0700343F00703BAE7836823F021
:10128000700343F01703B4E7836823F0700343F05F
:101290002703AEE78800FEFF036A10B501248C40E7
:1012A00023EA04030362036A8A401A43026210BD00
:1012B00010B5044601220068FFF7EEFF23680C4AD0
:1012C00093420BD002F5A052934207D002F5806200
:1012D000934203D002F58062934203D15A6C42F4E8
:1012E00000425A641A6842F001021A60002010BDE0
:1012F000002C014010B5044600220068FFF7CCFF27
:101300002368184A93420BD002F5A052934207D0AB
:1013100002F58062934203D002F5806293420DD1C0
:10132000196A41F21112114208D1196A40F244427D
:10133000114202BF5A6C22F400425A64196A41F207
:101340001112114208D1196A40F24442114203D1EC
:101350001A6822F001021A60012384F83D3000204F
:1013600010BD00BF002C0140036A23F480330362E8
:10137000026A30B54468436D0D6823F4803323F06E
:1013800070032B438D6822F4003242EA05420D4D72
:10139000A8420BD005F5A055A84207D005F58065F9
:1013A000A84203D005F58065A84204D14D6924F414
:1013B000803444EA0524446043654B6883650262D7
:1013C00030BD00BF002C0140036A23F48013036288
:1013D000026A30B54468436D0D6823F0807323F4CE
:1013E000E04343EA05238D6822F4001242EA0552E5
:1013F0000C4DA8420BD005F5A055A84207D005F525
:101400008065A84203D005F58065A84204D14D69E6
:1014100024F4802444EA8524446043654B68C36512
:10142000026230BD002C014038B590F83C30012BF1
:1014300004460D464FF0020010D00123082A84F81C
:101440003C3084F83D0043D009D8FAB1042A2ED0AC
:101450000123002084F83D3084F83C0038BD102A78
:1014600047D0142A56D00C2AF2D12068FFF724FE68
:1014700023682969DA6942F40062DA61DA6922F4E0
:101480008062DA61DA6942EA012230E02068FFF71F
:1014900057FD236829699A6942F008029A619A699E
:1014A00022F004029A619A690A439A61D0E720689F
:1014B000FFF78AFD236829699A6942F400629A61FC
:1014C0009A6922F480629A619A6942EA0122ECE701
:1014D0002068FFF7B5FD23682969DA6942F0080240
:1014E000DA61DA6922F00402DA61DA690A43DA6160
:1014F000AEE72068FFF738FF236809695A6D42F0AC
:1015000008025A655A6D22F004025A655A6D0A4360
:101510005A659DE72068FFF757FF236809695A6DF0
:1015200042F400625A655A6D22F480625A655A6D1F
:1015300042EA0122ECE7000090F83C30012B30B584
:1015400018D002680C4D53689468AA4202BF4D68D7
:1015500023F470032B430D68896823F070032B4339
:1015600024F08004536021430023916080F83C30D4
:10157000184630BD022030BD002C01407047704736
:101580007047000038B5044605682169A368C26940
:1015900028680B4361690B434949134301400B43DE
:1015A0002B606B68E168206A23F440530B436B6047
:1015B000A968A36921F4306103430B43AB60414B3D
:1015C0009D4212D103F558433F491B6B03F00303BF
:1015D000B2F5004FCB5C3BD1082B36D8DFE803F0E7
:1015E0000F2124352D3535353000384B9D4203D041
:1015F00003F580639D425ED1B2F5004F31D1FFF714
:101600001BFB61684A0802EB4003B3FBF1F39BB29A
:10161000002023F00F022168C3F342031343CB6081
:1016200038BDFFF721FBECE76068430803F574035E
:1016300003F51053B3FBF0F3E9E7FFF721FAE0E716
:101640006068430803F58033F4E701200023E0E7F6
:10165000082B33D8DFE803F005101B322732323273
:101660002A00FFF7E9FA636800EB5300B0FBF3F0E0
:1016700080B2E860002038BDFFF7F6FA636800EB3F
:101680005300B0FBF3F00F4B80B2D860F2E7626812
:10169000530803F5F40303F59053B3FBF2F3094A3F
:1016A0009BB2D360E6E7FFF7EBF9E7E76268530820
:1016B00003F50043F1E7B2F5004FC6D0012038BD75
:1016C000F369FFEF003801402C2A00080044004075
:1016D000436ADA0710B506D50168846A4A6822F4BD
:1016E000003222434A609C0706D50168C46A4A68F2
:1016F00022F4803222434A60590706D50168046B00
:101700004A6822F4802222434A601A0706D50168FB
:10171000446B4A6822F4004222434A60DC0606D544
:101720000168846B8A6822F4805222438A60990699
:1017300006D50168C46B8A6822F4005222438A608D
:101740005A060FD50168046C4A6822F480122243BD
:10175000B4F5801F4A6005D14A68446C22F4C00287
:1017600022434A601B0606D50268816C536823F445
:1017700000230B43536010BD2DE9F041069D044644
:101780000F46164698462168CA6937EA02030CBF1D
:1017900001220022B24202D00020BDE8F0816B1C81
:1017A000F2D09DB923681A6822F4D0721A609A6840
:1017B00022F001029A60202384F8693084F86A30AC
:1017C000002384F868300320BDE8F081FEF792FD25
:1017D000A0EB08008542D6D2E4E72DE9F3411F468D
:1017E00090F86930202B04460D4690464CD10029D4
:1017F00048D0002A46D090F86830012B44D001230D
:1018000080F868300023C366212380F86930FEF732
:1018100071FDA4F850800646A4F85280B4F8522016
:1018200092B262B90097334640212046FFF7A4FFE9
:1018300098B9202384F8693084F868000EE0B4F881
:1018400052300097013B9BB2A4F85230002233463D
:1018500080212046FFF790FF18B1032002B0BDE8B9
:10186000F081A3682268B3F5805F07D123692BB9A3
:1018700035F8023BC3F308031385CFE72B781385B4
:101880000135CBE70120E9E70220E7E773B504461D
:101890000026C666FEF72EFD23681B681A0705465C
:1018A00017D423681B685B070AD56FF07E4300934B
:1018B00000222B464FF480012046FFF75DFFA0B9C0
:1018C0002023002084F8693084F8680084F86A30A6
:1018D0000CE06FF07E430093324603464FF4001154
:1018E0002046FFF749FF0028DBD0032002B070BD7F
:1018F00010B5044660B390F8693003F0FF021BB9DD
:1019000080F8682000F06EFB2268242384F8693098
:10191000136823F0010313602046FFF733FE01280C
:1019200016D0636A13B12046FFF7D2FE23685A68C7
:1019300022F490425A609A6822F02A029A601A6849
:1019400042F0010220461A60BDE81040FFF79EBF3A
:10195000012010BD10B590B02822002106A800F08B
:1019600015FC1422002101A800F010FC01230A93A9
:10197000102302240B9306A84FF460130F930694D0
:101980000D94FEF707FE0F2301934FF480620023AE
:10199000214601A80294039304920593FFF7A2F84D
:1019A00010B010BD70B5134C134E2388B3F5966F6D
:1019B000254606D11148FFF77AF9002333602380CA
:1019C00070BDB3F5167F07D100210D48FFF792FCDB
:1019D00004210C48FFF78EFCD6ED007A2B880A4ACA
:1019E000F8EEE77A02EB83020133C2ED007A2B8036
:1019F00070BD00BF8C0000209000002064260020F5
:101A0000A4260020242600209400002038B52C4C69
:101A10002C4D23782B7020214FF09040FEF7A6FD2F
:101A200030B940214FF09040FEF7A0FD00B9207082
:101A300020214FF09040FEF799FD38B940214FF03A
:101A40009040FEF793FD08B10123237020214FF051
:101A50009040FEF78BFD38B140214FF09040FEF7EB
:101A600085FD08B90223237020214FF09040FEF736
:101A70007DFD38B140214FF09040FEF777FD08B171
:101A8000032323702B78032B18D8DFE803F0020A16
:101A9000100D2378012B0DD10B4A1368013313600D
:101AA00038BD2378032BF6E72378022BF3E723785E
:101AB000002BF1D0044A1368013BF0E738BD00BFAA
:101AC0008F0000208E00002090000020B5EEC00A9C
:101AD000F1EE10FADFED137AD8BFB1EE400A20EE36
:101AE000270A08B5BDEEC00AD4BF0222012210EEBB
:101AF000103A012A03F1FF330CD10B48C268016888
:101B0000D31A4B630021FFF7D3FB0848BDE8084018
:101B1000FFF7C2B80648C2680168D31A8B63042174
:101B2000F1E700BF0000C842A42600206426002080
:101B3000242600202DE9F0430A1E83B0B8BF52428C
:101B4000054600AFB4BF4FF001084FF00008134640
:101B500001240A21092B29DCE31D23F00703ADEB47
:101B6000030DE9461549ADEB030D484600F016FBA1
:101B70006E460022D3B29C4202F101021ADCB8F197
:101B8000000F09D007F108012D2321F8043D01229F
:101B90000A232846FFF721FE0A23A2B2314628462F
:101BA000FFF71BFE0C37BD46BDE8F08393FBF1F356
:101BB0000134CFE719F80310F154DBE7332A0008AA
:101BC000FDEEC07A37B5B8EEE77A17EE901A30EE30
:101BD000470A9FED1A7A20EE070A0A22BDEEC07A64
:101BE000054617EE104AFFF7A5FF02A92E2321F89C
:101BF000083D01220A232846FFF7EFFD092C08DCE7
:101C00003023ADF8043001220A2301A90C48FFF764
:101C1000E4FD214628460A22FFF78CFF094B1A886B
:101C20009B78ADF804208DF8063002220A2301A922
:101C30002846FFF7D2FD03B030BD00BF0000C84208
:101C4000E4260020302A0008F7B5104E104D114F41
:101C5000002421460A222846FFF76CFF38683B79AA
:101C600000908DF8043005220A2369462846FFF7C4
:101C7000B4FD01340A21B6EC010A2846FFF7A0FFA3
:101C8000B4F5966FE5D103B0F0BD00BF541300204A
:101C9000E4260020362A000838B505462DED028BD3
:101CA0000024B0EE408AAC4205D1BDEC028BBDE809
:101CB0003840FFF7C9BFB0EE480AFFF707FF41F20F
:101CC0008830FEF71DFB621C07EE904A07EE102AD3
:101CD0000A4B0B49F8EEE77AB8EEC76A03F596505F
:101CE000D3ED006AB1EC017AA6EEA77AC7EE066AD8
:101CF000E3EC016A8342F3D11446D4E75413002085
:101D00009400002080B590B0FEF7D6FAFFF722FECF
:101D10001422002109A800F039FA614B614D5A697B
:101D200042F480025A615A6902F480020092009AD9
:101D30005A6942F400325A615B6903F4003301933B
:101D40006026019B584B0A9309A94FF090400996D1
:101D5000FEF752FB002211461720FEF7F7FA172074
:101D6000FEF728FB5148524A00244FF4164380E8FE
:101D70001C000C234361C46004618461C46104627B
:101D80004462FFF7B5FD1022214605A800F0FEF9D8
:101D90001C22214609A84FF0010A40F2AF490294E3
:101DA0000394049400F0F2F94FF08043284685E84C
:101DB0000804AC60C5F80C902C61AC614FF48058FD
:101DC000FFF78AF805A92846CDF81480FFF7AEF989
:101DD0002846FFF79BF802A928464FF4167702948D
:101DE0000494FFF7A9FB224609A9284609960A97F9
:101DF0000B940D94FFF718FB284600F0B9F8102259
:101E0000214605A82B4D00F0C1F91C22214609A846
:101E100002940394049400F0B9F9274BAC6028466F
:101E200085E80804C5F80C902C61AC61FFF754F804
:101E300005A92846CDF81480FFF778F92846FFF762
:101E400065F802A9284602940494FFF775FB042262
:101E500009A9284609960A970B940D94FFF7E4FA0E
:101E6000284600F085F8154D154909940F2385E89B
:101E70000A00284640F69F73EB600A940B94AC600E
:101E8000AC61FFF729F809A9284609940B94FFF7DC
:101E900053FB0A20B1EE000AFFF7FEFEFEE700BF8B
:101EA00000100240A426002000003110E42600208B
:101EB0000044004024260020000400406426002046
:101EC000001000400A4B9A6942F001029A619A6937
:101ED00082B002F001020092009ADA6942F0805268
:101EE000DA61DB6903F080530193019B02B0704714
:101EF000001002401FB50368B3F1804F0DD103F508
:101F00000433DA6942F00102DA61DB6903F00103AC
:101F10000193019B05B05DF804FB124A93420AD17C
:101F2000114BDA6942F00202DA61DB6903F0020365
:101F30000293029BEEE70D4A9342EBD10A4BDA691A
:101F400042F01002DA61DB69002203F01003039310
:101F500011463620039BFEF7F9F93620FEF72AFAE0
:101F6000D8E700BF0004004000100240001000400D
:101F700010B5044688B01422002103A800F006F929
:101F80002368B3F1804F16D103F504335A6942F444
:101F900000325A615B6903F400330193019B022212
:101FA00001230393049203A94FF090400793FEF797
:101FB00023FA08B010BD094A9342FAD1084B5A6976
:101FC00042F400325A615B6903F400330293029BCE
:101FD0001023039302230493E5E700BF00040040AD
:101FE0000010024010B5044688B01422002103A856
:101FF00000F0CCF82268134B9A4221D103F5E63366
:1020000003A9DA6942F40032DA61DA6902F40032D3
:102010000192019A5A6942F400325A615B6903F4F1
:1020200000330293029B48F20403039302230493B8
:10203000032306934FF0904007230793FEF7DCF944
:1020400008B010BD004400407047FEE7FEE7FEE721
:10205000FEE7704770477047FEF740B908B5FFF7D5
:10206000D5FC2020FEF78AFA4020BDE80840FEF7A4
:1020700085BA000008B5FFF795FC0248BDE80840A6
:10208000FEF730BE642600201549D1F8883043F4AD
:102090007003C1F88830134B1A6842F001021A60CD
:1020A0005868114A02405A601A6822F0847222F479
:1020B00080321A601A6822F480221A605A6822F468
:1020C000FE025A60DA6A22F00F02DA62186B074ADF
:1020D00002401A6300229A604FF000638B607047E1
:1020E00000ED00E0001002400CC07FF8CCFC00FFC7
:1020F000DFF834D0002103E00C4B5B58435004312F
:102100000B480C4B42189A42F6D30B4A02E00023CC
:1021100042F8043B094B9A42F9D3FFF7B5FF00F0B0
:1021200011F8FFF7EFFDFEE700300020902A0008CD
:1021300000000020700000207000002058270020C0
:10214000FEE7000070B50D4E0D4CA41BA410002539
:10215000A54209D10B4E0C4C00F04CFCA41BA41062
:102160000025A54205D170BD56F8253098470135A8
:10217000EEE756F8253098470135F2E7882A00083F
:10218000882A0008882A00088C2A0008024403468E
:10219000934200D1704703F8011BF9E70EB400B574
:1021A0009CB04FF402711DABADF814100290069074
:1021B0006FF000410A48049107914FF6FF7153F800
:1021C000042BADF816100068019302A900F066F820
:1021D000029B00221A701CB05DF804EB03B070473C
:1021E0000C0000202DE9F0478E689E4282460C4686
:1021F0009146984635D88A8912F4906F31D0256877
:1022000009696F1A6569022305EB450595FBF3F52E
:1022100008F101033B449D4238BF1D46530531D5AB
:10222000294600F039FB064650B90C23CAF80030A5
:10223000A38943F04003A3814FF0FF30BDE8F0874E
:102240003A46216900F0B4FAA38923F4906343F07D
:102250008003A381266165613E44ED1B2660A56075
:102260004646464528BF464632464946206800F065
:10227000AAFAA3689B1BA36023681E442660002063
:10228000BDE8F0872A4600F065FB06460028E1D14C
:102290002169504600F0B2FAC7E700002DE9F04F7F
:1022A0009DB0804603938B891C060D4616460FD5BC
:1022B0000B696BB9402100F0EFFA2860286128B95A
:1022C0000C23C8F800304FF0FF30C5E040236B61AD
:1022D0000023099320238DF8293030238DF82A30EC
:1022E0004FF0010B37463C4614F8013B002B3CD124
:1022F000B7EB060A0BD05346324629464046FFF755
:1023000071FF013000F0A380099B534409933B788F
:10231000002B00F09C8000234FF0FF3204930793C2
:10232000059206938DF853301A9305222178504870
:10233000FDF74EFF671C049BD8B9D90644BF202285
:102340008DF853201A0744BF2B228DF85320227892
:102350002A2A16D0079A00210A20274601343B7802
:10236000303B092B51D9C9B111E0252BC0D02746EC
:10237000B9E73F4A801A0BFA00F0184304903C4634
:10238000D3E7039A111D12680391002A01DB07921B
:1023900004E0524243F00203079204933B782E2B51
:1023A0000ED17B782A2B07F1010132D1039B1A1D34
:1023B0001B680392002BB8BF4FF0FF330237059321
:1023C0002C4C397803222046FDF702FF38B1402318
:1023D000001B03FA00F0049B034304930137397890
:1023E00025488DF8281006227E1CFDF7F1FE0028F6
:1023F00035D0224BFBB9039B073323F00703083387
:102400000393099B4B4409936CE700FB02320121C3
:10241000A3E70023059318460A240F4601313A78B2
:10242000303A092A03D9002BCAD00590C8E704FB2B
:1024300000200123F1E703AB00932A46104B04A9C7
:102440004046AFF30080B0F1FF3F8146D9D1AB8960
:102450005B063FF538AF09981DB0BDE8F08F03ABC0
:1024600000932A46064B04A9404600F081F8EAE7AB
:10247000532A0008592A00085D2A000800000000BD
:10248000E52100082DE9F04791461F468A680B694F
:10249000DDF820809342B8BF1346C9F8003091F8A8
:1024A000432006460C4612B10133C9F800302368B8
:1024B000990642BFD9F800300233C9F800302568C8
:1024C00015F0060507D104F1190AE368D9F80020D0
:1024D0009B1A9D4229DB94F843302268003318BFD1
:1024E000012392062ED404F1430239463046C047F8
:1024F000013021D02368E568D9F8002003F00603F5
:10250000042B08BFAD1AA36822690CBF25EAE57544
:1025100000259342C4BF9B1AED184FF000091A34EE
:102520004D451BD10020BDE8F087012352463946B6
:102530003046C047013003D14FF0FF30BDE8F0878F
:102540000135C2E7E1185A1C302081F843002244CB
:1025500094F8451082F843100233C4E70123224661
:1025600039463046C0470130E6D009F10109D7E7C6
:102570002DE9F04317460A7E85B06E2A9846064636
:102580000C460C9B01F1430E00F0BC801AD8632A64
:102590002ED00AD8002A00F0C880582A00F08A807D
:1025A00004F1420584F842202AE0642A01D0692A15
:1025B000F6D121681A6811F0800F23D0111D19601F
:1025C000136827E0732A00F0B48008D86F2A2AD055
:1025D000702AE5D10A6842F020020A6003E0752AF9
:1025E00021D0782ADCD1782284F845206E4964E035
:1025F0001A6801F14205111D1960136884F8423010
:102600000123A3E011F0400F02F104011960D7D0BB
:10261000B2F90030002B03DA2D225B4284F843200C
:1026200062490A2217E02068196810F0800F03D071
:10263000081D18600B6806E010F0400F01F104005F
:102640001860F7D00B8859496F2A14BF0A22082254
:10265000002084F843006568A560002DC0F29C80CE
:10266000206820F004002060002B3FD1002D40F0B6
:1026700095807546082A0BD12368DA0708D52369A7
:1026800062689A42DEBF302305F8013C05F1FF3550
:10269000AEEB05032361CDF800803B4603AA21463B
:1026A0003046FFF7EFFE013055D14FF0FF3005B057
:1026B000BDE8F08381F845203C492268186812F093
:1026C000800F00F104051D6001D0036802E055068B
:1026D000FBD50388D00744BF42F0200222601BB91B
:1026E000226822F0200222601022B1E77546B3FB77
:1026F000F2F002FB1033CB5C05F8013D03460028E5
:10270000F5D1B7E708681A68496910F0800F04D05E
:10271000101D18601368196007E010F0400F02F1F7
:10272000040018601368F6D01980002323617546F1
:10273000B1E71A68111D1960156862680021284602
:10274000FDF746FD08B1401B60606368236100230C
:1027500084F843309FE723692A4639463046C0470C
:102760000130A2D023689B0707D5002504F1190981
:10277000E368039A9B1A9D4205DBE068039B98423D
:10278000B8BF184693E701234A4639463046C0474A
:1027900001308AD00135EBE7002BA7D10B7884F804
:1027A000423004F1420565E7752A0008642A0008F2
:1027B00010B5431E0A44914200D110BD11F8014BDF
:1027C00003F8014FF7E7884210B501EB020303D885
:1027D000421E99420CD110BD9842F9D28118D21AEA
:1027E000D34200D110BD13F8014D01F8014DF7E7B8
:1027F00011F8014B02F8014FEBE7000038B5054630
:10280000002945D051F8043C0C1F002BB8BFE41838
:1028100000F0D6F81F4A1368104633B9636014609D
:102820002846BDE8384000F0CCB8A3420CD9216856
:102830006218934204BF1A685B68636004BF521851
:1028400022600460ECE713465A680AB1A242FAD942
:1028500019685818A0420BD12068014458188242C8
:102860001960DDD1106852685A6001441960D7E7D9
:1028700002D90C232B60D3E7206821188A4204BFB9
:1028800011685268626004BF091821605C60C7E784
:1028900038BD00BF1426002070B5CD1C25F00305FF
:1028A00008350C2D38BF0C25002D064601DBA9424A
:1028B00003D90C233360002070BD00F081F8234A57
:1028C0001468214691B9224C23681BB9304600F0A8
:1028D00067F820602946304600F062F8431C26D194
:1028E0000C233360304600F06CF8E4E70B685B1BA8
:1028F0001AD40B2B0FD90B60CD50CC18304600F0FA
:1029000060F804F10B00231D20F00700C31A1BD050
:102910005A42E25070BD8C420DBF63684B686360E1
:10292000136018BF0C46E9E70C464968CAE7C41CA7
:1029300024F00304A04205D0211A304600F030F8FC
:102940000130CDD02560D9E770BD00BF142600202E
:1029500018260020F8B5074614460E4621B9114640
:10296000BDE8F840FFF798BF22B9FFF747FF2546BB
:102970002846F8BD00F026F884420FD92146384693
:10298000FFF78AFF05460028F2D031462246FFF7BE
:102990000FFF31463846FFF731FFE9E73546E7E7F5
:1029A00038B5064C002305460846236000F014F8AD
:1029B000431C02D1236803B12B6038BD542700208B
:1029C0007047704751F8040C0028A0F10400BCBF08
:1029D0000B58C01870470000044B1968024609B92B
:1029E00003491960186802441A6070471C260020C9
:1029F00058270020F8B500BFF8BC08BC9E467047B9
:0C2A0000F8B500BFF8BC08BC9E4670474B
:102A0C0002030405060708090A0B0C0D0E0F101023
:102A1C000102030405060708090A0B0C0D0E0F1022
:102A2C00000408020D0A002564002020202000006C
:102A3C000000000000000001020304060708090062
:102A4C0000000001020304232D302B2000686C4C85
:102A5C0000656667454647003031323334353637CA
:102A6C0038394142434445460030313233343536EF
:0C2A7C0037383961626364656600000051
:042A8800B50100088C
:042A8C0091010008AC
:102A9000010000001000000000127A001000002069
:102AA0000000000000000000000000000000000026
:102AB0000000000000000000000000000000000016
:102AC0000000000000000000000000000000000006
:102AD00000000000000000000000000000000000F6
:102AE00000000000000000000000000000000000E6
:102AF00000000000000000000000000000000000D6
:04000005080020F1DE
:00000001FF
